S01800004F7065726174696E672053797374656D2E73726563BE
S11300000C942A000C9447000C9447000C9447006D
S11300100C9447000C9447000C9447000C94470040
S11300200C9447000C9447000C9402040C94470071
S11300300C9447000C9447000C9447000C94470020
S11300400C9447000C9447000C9447000C94470010
S11300500C94470011241FBECFE5D8E0DEBFCDBF0E
S113006010E0A0E6B0E0EAE6F8E002C005900D92E8
S1130070A636B107D9F720E0A6E6B0E001C01D928C
S1130080A037B207E1F70E9467020C9433040C9482
S11300900000CF93DF9300D0CDB7DEB789836A83A6
S11300A089818830B0F58A818130C9F48BE390E08E
S11300B02BE330E04BE350E0FA014081E42F498127
S11300C0642F70E041E050E002C0440F551F6A9570
S11300D0E2F74E2BF9014083FC014083E3C08BE33C
S11300E090E02BE330E04BE350E0FA014081E42F51
S11300F04981642F70E041E050E002C0440F551F75
S11301006A95E2F740954E23F9014083FC01408350
S1130110C9C08981883008F43FC089818031E0F505
S11301208A818130E1F488E390E028E330E048E319
S113013050E0FA014081E42F4981442F50E0BA0194
S11301406850710941E050E002C0440F551F6A95A0
S1130150E2F74E2BF9014083FC014083A3C088E3FE
S113016090E028E330E048E350E0FA014081E42FD6
S11301704981442F50E0BA016850710941E050E0D0
S113018002C0440F551F6A95E2F740954E23F901CA
S11301904083FC01408386C08981803108F43FC0DC
S11301A089818831E0F58A818130E1F485E390E04A
S11301B025E330E045E350E0FA014081E42F498132
S11301C0442F50E0BA016051710941E050E002C08F
S11301D0440F551F6A95E2F74E2BF9014083FC0149
S11301E0408360C085E390E025E330E045E350E0E0
S11301F0FA014081E42F4981442F50E0BA01605153
S1130200710941E050E002C0440F551F6A95E2F7BE
S113021040954E23F9014083FC01408343C089810A
S1130220883108F43FC089818032E0F58A818130C9
S1130230E1F482E390E022E330E042E350E0FA01AB
S11302404081E42F4981442F50E0BA01685171097B
S113025041E050E002C0440F551F6A95E2F74E2B6F
S1130260F9014083FC0140831DC082E390E022E356
S113027030E042E350E0FA014081E42F4981442F09
S113028050E0BA016851710941E050E002C0440FE6
S1130290551F6A95E2F740954E23F9014083FC010E
S11302A0408300C000000F900F90DF91CF9108951C
S11302B0CF93DF9300D0CDB7DEB789836A8389817A
S11302C08830B0F58A818130C9F48AE390E02AE36A
S11302D030E04AE350E0FA014081E42F4981642F81
S11302E070E041E050E002C0440F551F6A95E2F708
S11302F04E2BF9014083FC014083E3C08AE390E084
S11303002AE330E04AE350E0FA014081E42F4981D6
S1130310642F70E041E050E002C0440F551F6A951D
S1130320E2F740954E23F9014083FC014083C9C0A4
S11303308981883008F43FC089818031E0F58A8161
S11303408130E1F487E390E027E330E047E350E0D5
S1130350FA014081E42F4981442F50E0BA016850EA
S1130360710941E050E002C0440F551F6A95E2F75D
S11303704E2BF9014083FC014083A3C087E390E046
S113038027E330E047E350E0FA014081E42F49815C
S1130390442F50E0BA016850710941E050E002C0B6
S11303A0440F551F6A95E2F740954E23F9014083A7
S11303B0FC01408386C08981803108F43FC0898173
S11303C08831E0F58A818130E1F484E390E024E32C
S11303D030E044E350E0FA014081E42F4981442FA6
S11303E050E0BA016051710941E050E002C0440F8D
S11303F0551F6A95E2F74E2BF9014083FC014083B7
S113040060C084E390E024E330E044E350E0FA0188
S11304104081E42F4981442F50E0BA0160517109B1
S113042041E050E002C0440F551F6A95E2F7409541
S11304304E23F9014083FC01408343C08981883104
S113044008F43FC089818032E0F58A818130E1F48B
S113045081E390E021E330E041E350E0FA014081A0
S1130460E42F4981442F50E0BA016851710941E0F9
S113047050E002C0440F551F6A95E2F74E2BF90174
S11304804083FC0140831DC081E390E021E330E020
S113049041E350E0FA014081E42F4981442F50E0C8
S11304A0BA016851710941E050E002C0440F551F80
S11304B06A95E2F740954E23F9014083FC0140839D
S11304C000C000000F900F90DF91CF910895CF935B
S11304D0DF93CDB7DEB761E070E08CE090E00E947E
S11304E0580161E070E08DE090E00E94580161E005
S11304F070E08EE090E00E9458010E948002FFCFDD
S1130500CF93DF93CDB7DEB783E00E9460030E94F0
S1130510F1030E94E0030E94CB038CEA92E00E9464
S1130520990280E690E00E94BA020000DF91CF9128
S11305300895CF93DF9300D0CDB7DEB79A83898334
S113054089819A8190936F0080936E0000000F90D0
S11305500F90DF91CF910895CF93DF93CDB7DEB79E
S113056081E090E090936900809368000000DF913F
S1130570CF910895CF93DF9300D01F92CDB7DEB70C
S11305809B838A8380916800909169000197D1F7D9
S11305901092690010926800198213C00E94E5024B
S11305A08981882F90E0880F991F2A813B81820FCF
S11305B0931FFC0180819181FC01099589818F5FE2
S11305C089838981833050F3DDCFCF93DF93CDB717
S11305D0DEB7809166009091670001969093670062
S11305E0809366000000DF91CF910895CF93DF934D
S11305F0CDB7DEB78091660090916700883E934046
S113060064F461E08CE00E94490060E08DE00E94A7
S1130610490060E08EE00E9449000000DF91CF9124
S11306200895CF93DF93CDB7DEB7809166009091A4
S11306306700893E93409CF080916600909167002A
S1130640893B9B4064F460E08CE00E94490060E0D8
S11306508EE00E94490061E08DE00E9449000000A4
S1130660DF91CF910895CF93DF93CDB7DEB780911B
S1130670660090916700893B9B409CF080916600E6
S1130680909167008037974164F460E08CE00E94A9
S1130690490060E08DE00E94490061E08EE00E9424
S11306A0490080916600909167008037974121F45A
S11306B010926700109266000000DF91CF910895B8
S11306C0CF93DF931F92CDB7DEB7898383E590E0A4
S11306D028E0FC01208382E590E0FC0110828CE597
S11306E090E029EFFC012083898180936D0089814A
S11306F0813069F481E090E0A0E0B0E0809369008B
S113070090936A00A0936B00B0936C003FC0898102
S1130710823069F488E090E0A0E0B0E08093690062
S113072090936A00A0936B00B0936C002FC08981F2
S1130730833069F480E490E0A0E0B0E08093690045
S113074090936A00A0936B00B0936C001FC08981E2
S1130750843069F480E091E0A0E0B0E08093690027
S113076090936A00A0936B00B0936C000FC08981D2
S1130770853061F480E094E0A0E0B0E0809369000B
S113078090936A00A0936B00B0936C0000000F90EC
S1130790DF91CF910895CF93DF93CDB7DEB783E593
S11307A090E023E530E0F9012081322F20916D00A3
S11307B02770232BFC0120830000DF91CF91089543
S11307C0CF93DF93CDB7DEB78FE590E02FE530E030
S11307D0F90120812068FC0120830000DF91CF9182
S11307E00895CF93DF93CDB7DEB789E590E029E58F
S11307F030E0F90120812260FC0120830000DF91B8
S1130800CF9108951F920F9200905F000F921124D0
S11308102F933F934F935F936F937F938F939F9304
S1130820AF93BF93EF93FF93CF93DF93CDB7DEB72F
S113083080916E0090916F00FC0109950000DF919A
S1130840CF91FF91EF91BF91AF919F918F917F9144
S11308506F915F914F913F912F910F9000925F00A4
S10D08600F901F901895F894FFCF35
S109086AF6021103330342
S9030000FC
