:100000000C942A000C943C000C943C000C943C0092
:100010000C943C000C943C000C943C000C943C0070
:100020000C943C000C943C000C943C000C943C0060
:100030000C943C000C943C000C943C000C943C0050
:100040000C943C000C943C000C943C000C943C0040
:100050000C943C0011241FBECFE5D8E0DEBFCDBF1D
:1000600020E0A0E6B0E001C01D92A236B207E1F7A1
:100070000E945C020C940C050C940000CF93DF935B
:1000800000D0CDB7DEB789836A8389818830B0F527
:100090008A818130C9F48BE390E02BE330E04BE3BD
:1000A00050E0FA014081E42F4981642F70E041E083
:1000B00050E002C0440F551F6A95E2F74E2BF9013C
:1000C0004083FC014083E3C08BE390E02BE330E00E
:1000D0004BE350E0FA014081E42F4981642F70E046
:1000E00041E050E002C0440F551F6A95E2F7409589
:1000F0004E23F9014083FC014083C9C089818830C7
:1001000008F43FC089818031E0F58A818130E1F4D3
:1001100088E390E028E330E048E350E0FA014081D2
:10012000E42F4981442F50E0BA016850710941E041
:1001300050E002C0440F551F6A95E2F74E2BF901BB
:100140004083FC014083A3C088E390E028E330E0D3
:1001500048E350E0FA014081E42F4981442F50E008
:10016000BA016850710941E050E002C0440F551FC8
:100170006A95E2F740954E23F9014083FC014083E4
:1001800086C08981803108F43FC089818831E0F5DB
:100190008A818130E1F485E390E025E330E045E3B6
:1001A00050E0FA014081E42F4981442F50E0BA0128
:1001B0006051710941E050E002C0440F551F6A953B
:1001C000E2F74E2BF9014083FC01408360C085E3D8
:1001D00090E025E330E045E350E0FA014081E42F70
:1001E0004981442F50E0BA016051710941E050E06B
:1001F00002C0440F551F6A95E2F740954E23F9015E
:100200004083FC01408343C08981883108F43FC0AA
:1002100089818032E0F58A818130E1F482E390E0E7
:1002200022E330E042E350E0FA014081E42F4981CB
:10023000442F50E0BA016851710941E050E002C01A
:10024000440F551F6A95E2F74E2BF9014083FC01DC
:1002500040831DC082E390E022E330E042E350E0BF
:10026000FA014081E42F4981442F50E0BA016851DE
:10027000710941E050E002C0440F551F6A95E2F752
:1002800040954E23F9014083FC01408300C00000EB
:100290000F900F90DF91CF910895CF93DF9300D00F
:1002A000CDB7DEB789836A8389818830B0F58A81CA
:1002B0008130C9F48AE390E02AE330E04AE350E079
:1002C000FA014081E42F4981642F70E041E050E061
:1002D00002C0440F551F6A95E2F74E2BF901408387
:1002E000FC014083E3C08AE390E02AE330E04AE384
:1002F00050E0FA014081E42F4981642F70E041E031
:1003000050E002C0440F551F6A95E2F740954E2316
:10031000F9014083FC014083C9C08981883008F419
:100320003FC089818031E0F58A818130E1F487E343
:1003300090E027E330E047E350E0FA014081E42F0A
:100340004981442F50E0BA016850710941E050E002
:1003500002C0440F551F6A95E2F74E2BF901408306
:10036000FC014083A3C087E390E027E330E047E34C
:1003700050E0FA014081E42F4981442F50E0BA0156
:100380006850710941E050E002C0440F551F6A9562
:10039000E2F740954E23F9014083FC01408386C07B
:1003A0008981803108F43FC089818831E0F58A81F4
:1003B0008130E1F484E390E024E330E044E350E072
:1003C000FA014081E42F4981442F50E0BA01605185
:1003D000710941E050E002C0440F551F6A95E2F7F1
:1003E0004E2BF9014083FC01408360C084E390E020
:1003F00024E330E044E350E0FA014081E42F4981F6
:10040000442F50E0BA016051710941E050E002C050
:10041000440F551F6A95E2F740954E23F90140833A
:10042000FC01408343C08981883108F43FC0898141
:100430008032E0F58A818130E1F481E390E021E3CC
:1004400030E041E350E0FA014081E42F4981442F3C
:1004500050E0BA016851710941E050E002C0440F18
:10046000551F6A95E2F74E2BF9014083FC0140834A
:100470001DC081E390E021E330E041E350E0FA0168
:100480004081E42F4981442F50E0BA01685171093D
:1004900041E050E002C0440F551F6A95E2F74095D5
:1004A0004E23F9014083FC01408300C000000F90FF
:1004B0000F90DF91CF910895CF93DF93CDB7DEB743
:1004C0002F970FB6F894DEBF0FBECDBF0E94E90292
:1004D0000E940003198278C089810E94180380E07D
:1004E00090E8ABE3B5E48A839B83AC83BD8320E0D3
:1004F00030E04AE753E46A817B818C819D810E94D0
:100500004F04DC01CB018E839F83A887B98720E04D
:1005100030E040E85FE36E817F81888599850E94A5
:10052000C90388232CF481E090E09B878A873FC031
:1005300020E03FEF4FE757E46E817F818885998502
:100540000E944A0418164CF520E030E040E251E4E5
:100550006A817B818C819D810E944F04DC01CB01EB
:10056000BC01CD010E94CE03DC01CB019B878A87B1
:100570000FC089E190E09D878C878C859D850197D0
:10058000F1F79D878C878A859B8501979B878A8752
:100590008A859B85892B69F714C06E817F81888548
:1005A00099850E94CE03DC01CB019B878A878A85CF
:1005B0009B859F878E878E859F850197F1F79F8703
:1005C0008E878981865F89838981843608F484CF08
:1005D00081CFCF93DF93CDB7DEB761E08DE10E948D
:1005E0004D0161E08EE10E944D0161E08FE10E94CA
:1005F0004D0184E00E9428030000DF91CF9108950F
:10060000CF93DF93CDB7DEB760E08EE10E943E006E
:1006100060E08FE10E943E0061E08EE10E943E00BA
:1006200060E08FE10E943E000000DF91CF910895CD
:10063000CF93DF931F92CDB7DEB7898389810E9464
:1006400094030E947A0300000F90DF91CF910895E8
:10065000CF93DF931F92CDB7DEB789838981882F2F
:1006600090E0909361008093600087E490E027E041
:10067000FC01208386E490E020EDFC0120838FE4E0
:1006800090E02FE430E0F90120812064FC01208318
:100690008FE490E02FE430E0F90120812068FC0134
:1006A00020838FE490E02FE430E0F90120812E7F59
:1006B000FC0120838FE490E02FE430E0F9012081F9
:1006C0002260FC0120838EE490E02EE430E0F9010A
:1006D0002081277FFC0120838EE490E02EE430E02F
:1006E000F90120812061FC01208300000F90DF913F
:1006F000CF910895CF93DF93CDB7DEB78EE490E02E
:100700002EE430E0F90140812091600030916100D9
:100710002770242BFC01208361E08DE10E944D01B4
:100720000000DF91CF910895CF93DF9300D01F9207
:10073000CDB7DEB78B838B81282F30E080ED97E03B
:10074000289FA001299F500D389F500D112424E6A9
:1007500030E0CA01B9010E94E404CB019C0180EDA4
:1007600097E0821B930B9A8389838BE490E0298125
:100770003A81232F3327FC0120838AE490E02981EA
:10078000FC01208300000F900F900F90DF91CF911C
:1007900008950E94FD0308F481E008950E94290451
:1007A00088F09F5798F0B92F9927B751B0F0E1F032
:1007B000660F771F881F991F1AF0BA95C9F714C0E2
:1007C000B13091F00E944304B1E008950C944304C9
:1007D000672F782F8827B85F39F0B93FCCF386951B
:1007E00077956795B395D9F73EF490958095709578
:1007F00061957F4F8F4F9F4F0895990F0008550FB8
:10080000AA0BE0E8FEEF16161706E807F907C0F096
:1008100012161306E407F50798F0621B730B840B9E
:10082000950B39F40A2661F0232B242B252B21F478
:1008300008950A2609F4A140A6958FEF811D811D18
:10084000089557FD9058440F551F59F05F3F71F0C0
:100850004795880F97FB991F61F09F3F79F0879527
:100860000895121613061406551FF2CF4695F1DFB0
:1008700008C0161617061806991FF1CF8695710540
:10088000610508940895E894BB2766277727CB0174
:1008900097F908950E94FD0308F48FEF08950E94D0
:1008A00062040C94D3040E94C50438F00E94CC0466
:1008B00020F0952311F00C94BC040C94C204112474
:1008C0000C9444040E94210470F3959FC1F3950F8A
:1008D00050E0551F629FF001729FBB27F00DB11DC4
:1008E000639FAA27F00DB11DAA1F649F6627B00D54
:1008F000A11D661F829F2227B00DA11D621F739F3D
:10090000B00DA11D621F839FA00D611D221F749F4A
:100910003327A00D611D231F849F600D211D822F91
:10092000762F6A2F11249F5750409AF0F1F08823B8
:100930004AF0EE0FFF1FBB1F661F771F881F9150E5
:100940005040A9F79E3F510580F00C94BC040C94D4
:1009500044045F3FE4F3983ED4F38695779567951A
:10096000B795F795E7959F5FC1F7FE2B880F911D0F
:100970009695879597F9089597F99F6780E870E0B5
:1009800060E008959FEF80EC089500240A94161605
:10099000170618060906089500240A94121613066D
:1009A000140605060895092E0394000C11F48823FB
:1009B00052F0BB0F40F4BF2B11F460FF04C06F5F17
:1009C0007F4F8F4F9F4F089597FB072E16F400948B
:1009D00007D077FD09D00E94F80407FC05D03EF44B
:1009E000909581959F4F0895709561957F4F0895DB
:1009F000AA1BBB1B51E107C0AA1FBB1FA617B70745
:100A000010F0A61BB70B881F991F5A95A9F7809560
:0C0A10009095BC01CD010895F894FFCF33
:00000001FF
